:103800006BC000009EC0000082C0000080C00000AD
:103810007EC000007CC000007AC0000078C00000BC
:1038200076C0000074C0000072C0000070C00000CC
:103830006EC000006CC000006AC0000068C00000DC
:1038400066C0000064C0000062C0000060C00000EC
:103850005EC000005CC000005AC0000058C00000FC
:1038600056C0000054C00000EC2DFD2DB7B6B0FCD2
:10387000FDCF27BFE895B7B6B0FCFDCF21E1B7B6C5
:10388000B6FCF4CF0895040309041C037700770005
:1038900077002E00660069007300630068006C000A
:1038A0002E00640065000E035500530042006100C5
:1038B0007300700012011001FF000008C016DC0543
:1038C0000201010200010902120001010080320917
:1038D000040000000000000011241FBECFEFD4E060
:1038E000DEBFCDBF11E0A0E0B1E0E0EFFFE302C03A
:1038F00005900D92A630B107D9F711E0A6E0B1E02E
:1039000001C01D92AF33B107E1F747D16FC378CF44
:10391000A82FB92F80E090E041E050EA609530E0B8
:1039200009C02D9182279795879510F084279527B8
:10393000305EC8F36F5FA8F30895EADF8D939D931F
:103940000895CF93CFB7CF93DF93C3954F9BE9F7FC
:103950004F9B0BC04F9B09C04F9B07C04F9B05C09F
:103960004F9B03C04F9B01C089C06F93C091220140
:10397000DD27C75DDE4F2F9365E54F9B03C02F9179
:103980006F91E6CF0F931F934F9320E040E15F9339
:1039900009B1047807FB27F93F9350E03BE039C0B9
:1039A000147840642F77012F5F5F1EC0406819B103
:1039B00014782F7752501FC0406409B12F770478D4
:1039C000D1F15F5F00C023C0406219B12F77147836
:1039D00091F15F5F00C025C004781027515012F4A8
:1039E0005D5F0000115027952C3F19B1C8F614787F
:1039F0000127015027952C3FC8F64227499309B16A
:103A0000047810274F73115027952C3FA8F6469540
:103A1000469519B1147879F00127015027952C3F6C
:103A200098F66B5A60F3315009B1B0F600C011E05E
:103A30001CBB002717C03B503195C31BD04011E081
:103A40001CBB0881033CF9F00B34E9F02091200104
:103A50001981110F1213EDCF093651F10D3211F00A
:103A6000013E39F7009327013F915F914F911F91DC
:103A70000F912F916F91CCB3C0FD67CFDF91CF91A4
:103A8000CFBFCF91189520912701222369F3109180
:103A90002501112339F534303AF130932501209373
:103AA0002101109122013BE0311B309322011CC007
:103AB000009125010130B4F40AE53091000134FD94
:103AC00014C000930001C5E1D1E013C0052710E048
:103AD00000C000000BB91AC0052710E0221F1DC04E
:103AE00010E021C04AE502C032ED432FC4E1D0E02E
:103AF00032E01AB114685F9A0BB11AB954E820E8A1
:103B000065E320FF05270BB9279517951C3FF0F6B5
:103B10006695B8F7B1F720FF05270BB927951795DC
:103B20001C3FD0F62795179517FF052700001C3F6F
:103B30000BB9B0F629913A9519F70B771091260138
:103B4000110FC651D0400BB911F01093200111E0B4
:103B50001CBB00681AB11B77402F4B7754E05A9575
:103B6000F1F70BB91AB94BB97FCFFC01938184816E
:103B70002281203339F48370E82FF0E0EE5FFE4FAE
:103B800080810895203A09F41BC2203C21F465810C
:103B90001FD280E0089580E00895DF93CF930F92C5
:103BA000CDB7DEB71AB880E48BB914BE80E284B911
:103BB00081E085BF92E095BF4E99F3C18091690085
:103BC000826080936900E89A579A2FEF31EB4CE0BE
:103BD000215030404040E1F700C0000057987894F1
:103BE00080912501835087FD35C1909122012CE001
:103BF000C22ED12CC91AD10849E251E0C40ED51EFB
:103C0000909121019D3209F0BAC0883009F020C19D
:103C100083EC809315018AE58093000110920901DD
:103C2000D6014C91842F807611963C911197882370
:103C300081F18FE091E09093240180932301333050
:103C400031F4C60192DF8093120124E089C035303F
:103C5000E1F03A30D1F0832F84508630C0F4F60181
:103C60008281938190930B0180930A01393079F01E
:103C7000268120930C018581827080930D01309301
:103C80000E0147FD69C02FEF67C021E069C020E049
:103C900067C0D60112968C91129710921E013323A1
:103CA00031F410921F018EE191E022E050C03530D6
:103CB00019F48093260141C03630B1F5F6019381A5
:103CC000913019F484EB98E304C0923041F486EC0F
:103CD00098E3909324018093230122E121C0933043
:103CE000F1F4882341F486E898E3909324018093CB
:103CF000230124E015C0813041F48AE898E39093D1
:103D00002401809323012CE10BC0823041F486EA28
:103D100098E390932401809323012EE001C020E0DA
:103D200080E4809309011CC0383059F0393019F40F
:103D30008093280102C03A3039F08EE191E020E012
:103D400006C088E291E002C08EE191E021E090930C
:103D500024018093230104C080E8809309010CC0F2
:103D6000D60117968C911797882331F416968C916B
:103D70001697821708F4282F2093010169C09091AB
:103D8000090197FF65C090910C01F82E981708F46F
:103D9000F92E9F1990930C0131E0911130E0809140
:103DA0000E018730C0F0860111C080910A01909108
:103DB0000B01AC014F5F5F4F50930B0140930A0121
:103DC000F80161918F01398303D13981802F8C19DA
:103DD0008F1558F339C080910D01E0910A01F091DF
:103DE0000B014F2DD60140FD4395425048F1F83369
:103DF00038F522D0F8940D901D9021E017D02E2F89
:103E00002E5F2F7731F0332379F0882369F040302B
:103E100059F423E00BD010D025E008D00DD007B620
:103E200006FE02C021E102D03296DFCFF89427BF10
:103E3000E89511247894089507B600FCFDCF089505
:103E4000F0930B01E0930A01332311F0109201016A
:103E5000109225018091000184FF78C080910101BA
:103E60008F3F09F473C0F82E893010F098E0F92ED6
:103E70008F19809301018091150198E8892780931B
:103E80001501FF2009F450C08091090187FF2FC060
:103E900080910C018F1508F4F82E8F1980930C0176
:103EA0000F2D10E00A5E1E4F86E1C82E81E0D82E4D
:103EB0001AC020910E0180910A0190910B012730C8
:103EC00010F07ED002C0FC018491D6018C9308943E
:103ED000C11CD11C80910A0190910B010196909315
:103EE0000B0180930A01C016D10619F71AC0E091A0
:103EF0002301F091240186FF09C08F2DA6E1B1E0D6
:103F000094919D9331968150D9F707C08F2DA6E1EA
:103F1000B1E091919D938150E1F7F0932401E093FA
:103F20002301BF2DB93060F486E191E06F2D05DDEE
:103F30008F2D8C5F8C3041F09FEF9093010104C076
:103F40008FEF809301018EE18093000184E199B1AC
:103F5000947831F48150D9F7109226011092200103
:103F6000809106019091070101979093070180933A
:103F7000060130910801332349F09F7321E0009737
:103F800009F020E0321B309308012ACE892F829558
:103F90008F7081608093080185B190E2892785B98F
:103FA0001FCEF894579A1BB814B815B81DBA1092C2
:103FB000690085BF15BEE0911301F09114010995C8
:103FC000F999FECF92BD81BDF89A992780B50895E1
:103FD000262FF999FECF1FBA92BD81BD20BD0FB625
:103FE000F894FA9AF99A0FBE01960895F894FFCFC3
:063FF0005AFF1E940600BA
:0400000300003800C1
:00000001FF
