:1000000033C000004CC000004AC0000048C00000DF
:1000100046C0000044C0000042C0000040C00000D4
:100020003EC000003CC000003AC0000038C00000E4
:1000300036C0000034C0000032C0000030C00000F4
:100040002EC000002CC000002AC0000028C0000004
:1000500026C0000024C0000022C0000020C0000014
:100060001EC000001CC0000011241FBECFEFD8E04E
:10007000DEBFCDBF11E0A0E0B1E0ECECFCE002C0DF
:1000800005900D92A230B107D9F711E0A2E0B1E0DE
:1000900001C01D92A230B107E1F71ED515C6B0CF41
:1000A000BF92CF92DF92DC01CB01B901E4E3F8E328
:1000B0000F921F92D92EC82EBA2E242F172E062E3D
:1000C00009952131F9F71F900F90DF90CF90BF90E5
:1000D0000895BF92CF92DF92DC01CB01B901E4E336
:1000E000FFE30F921F92D92EC82EBA2E242F172E5F
:1000F000062E09952131F9F71F900F90DF90CF90D0
:10010000BF900895CF93DF93DC01CB01FA01E901A1
:100110002138310510F0C0E8D0E0AC01BD014078D5
:10012000CF019E01D0D4CE01DF91CF9108952F92BF
:100130003F924F925F926F927F928F929F92AF9277
:10014000BF92CF92DF92EF92FF920F931F93CF93C4
:10015000DF93DC01CB01180189012138310510F052
:1001600000E810E028015694479430E8832E3FEFD2
:10017000932E3FEFA32E3FEFB32E88229922AA227F
:10018000BB223A01DA0140E050E030E020E019C043
:10019000C401861997098A0F9B1FFC016591749110
:1001A0008D919D916817790709F021E080959095D0
:1001B000862B972B6FEF8F3F960709F031E04F5F4B
:1001C0005F4F4415550521F7222359F1332339F0A8
:1001D000C501B40143E020E030E0F101099575016B
:1001E0006401C0E0D0E012C0D3012D913D913D01EA
:1001F000C701B60141E0F101099582E090E0A0E07D
:10020000B0E0C80ED91EEA1EFB1E2196C415D50506
:1002100059F7C501B40145E020E030E0F10109954E
:1002200002C000E010E0C801DF91CF911F910F9153
:10023000FF90EF90DF90CF90BF90AF909F908F9006
:100240007F906F905F904F903F902F9008956BC07C
:1002500000009EC0000082C0000080C000007EC080
:1002600000007CC000007AC0000078C0000076C0AA
:10027000000074C0000072C0000070C000006EC0BA
:1002800000006CC000006AC0000068C0000066C0CA
:10029000000064C0000062C0000060C000005EC0DA
:1002A00000005CC000005AC0000058C0000056C0EA
:1002B000000054C00000EC2DFD2DB7B6B0FCFDCF02
:1002C00027BFE895B7B6B0FCFDCF21E1B7B6B6FCC5
:1002D000F4CF0895090212000101008032090400E0
:1002E00000000000000012011001FF000008C0160D
:1002F000DC050201010200010E035500530042001B
:100300006100730070001C037700770077002E00F7
:10031000660069007300630068006C002E006400D2
:1003200065000403090411241FBECFEFD8E0DEBF2F
:10033000CDBF11E0A0E0B1E0E0E7F8E702C0059032
:100340000D92A830B107D9F711E0A8E0B1E001C0E3
:100350001D92AE33B107E1F779D1AFC378CFA82FA3
:10036000B92F80E090E041E050EA609530E009C0AC
:100370002D9182279795879510F084279527305ED9
:10038000C8F36F5FA8F30895EADF8D939D930895F6
:10039000CF93CFB7CF93DF93C3954F9BE9F74F9B95
:1003A0000BC04F9B09C04F9B07C04F9B05C04F9B85
:1003B00003C04F9B01C089C06F93C0912101DD270D
:1003C000C85DDE4F2F9365E54F9B03C02F916F9162
:1003D000E6CF0F931F934F9320E040E15F9309B165
:1003E000047807FB27F93F9350E03BE039C01478CD
:1003F00040642F77012F5F5F1EC0406819B11478E9
:100400002F7752501FC0406409B12F770478D1F183
:100410005F5F00C023C0406219B12F77147891F15B
:100420005F5F00C025C004781027515012F45D5F53
:100430000000115027952C3F19B1C8F614780127F8
:10044000015027952C3FC8F64227499309B10478FB
:1004500010274F73115027952C3FA8F646954695C7
:1004600019B1147879F00127015027952C3F98F69F
:100470006B5A60F3315009B1B0F600C011E01CBBFB
:10048000002717C03B503195C31BD04011E01CBB67
:100490000881033CF9F00B34E9F020911F01198128
:1004A000110F1213EDCF093651F10D3211F0013E4B
:1004B00039F7009326013F915F914F911F910F9162
:1004C0002F916F91CCB3C0FD67CFDF91CF91CFBF9C
:1004D000CF91189520912601222369F310912401D0
:1004E000112339F534303AF130932401209320015F
:1004F000109121013BE0311B309321011CC0009180
:1005000024010130B4F40AE53091010134FD14C036
:1005100000930101C4E1D1E013C0052710E000C041
:1005200000000BB91AC0052710E0221F1DC010E003
:1005300021C04AE502C032ED432FC4E1D0E032E0F1
:100540001AB114685F9A0BB11AB954E820E865E350
:1005500020FF05270BB9279517951C3FF0F66695E8
:10056000B8F7B1F720FF05270BB9279517951C3F62
:10057000D0F62795179517FF052700001C3F0BB9EC
:10058000B0F629913A9519F70B7710912501110FC3
:10059000C651D0400BB911F010931F0111E01CBBE4
:1005A00000681AB11B77402F4B7754E05A95F1F74A
:1005B0000BB91AB94BB97FCFDC0113963C91139755
:1005C000932F1496EC9114978E2F12962C911297CC
:1005D000203331F4E370F0E0EE5FFE4F8081089548
:1005E000283529F4332351F4E1E0F0E010C0203540
:1005F00099F4332341F4E0E0F0E009C0383021F50C
:10060000E3E0F0E004C03830F9F4E2E0F0E089E043
:100610008093570084910895203221F4FC01EE0F5D
:10062000FF1F06C0283231F4FC01EE0FFF1F319688
:1006300084910895203A09F42AC2203C29F41596A1
:100640006C912DD280E0089580E008951AB880E47E
:100650008BB914BE81E085BF82E085BF4E9909C287
:1006600084B7877F84BF88E10FB6F89480936000D9
:10067000109260000FBE80916900826080936900D3
:10068000E89A579A88E29AE0E0E9F1E03197F1F7C9
:100690000197D1F75798789420912401235027FD92
:1006A00054C1309121018CE090E0831B91098C01B1
:1006B000085D1E4F309120013D3209F0C9C028303D
:1006C00009F041C123EC209314012AE52093010194
:1006D00010920801D8014C91242F207611963C915C
:1006E00011972223D1F189E091E090932301809327
:1006F0002201333031F4C8015FDF80930C0124E024
:1007000098C0353031F13A3021F1832F8450863052
:10071000B0F4F8018281938190930E0180930D01D2
:100720003930C9F0268120930F0185818270809332
:1007300010013093110147FD78C02FEF76C08091F2
:100740000001323011F48E7F01C08160809300017E
:1007500002C021E06EC020E06CC0D80112962C913E
:10076000129710921D01332331F410921E018DE176
:1007700091E022E055C0353019F42093250144C0A2
:100780003630E1F5FC01E65DFE4F2081855D9E4F30
:10079000FC018081813019F488E990E704C082303F
:1007A00041F486E890E7909323018093220122E1AF
:1007B00021C08330F1F4222341F484ED90E790933B
:1007C00023018093220124E015C0213041F488EBFD
:1007D00090E790932301809322012CE10BC02230FB
:1007E00041F48AEA90E790932301809322012EE05E
:1007F00001C020E080E4809308011BC0383069F01C
:10080000393029F4209327018DE191E004C08DE176
:1008100091E03A3021F020E003C087E291E021E04E
:10082000909323018093220104C080E88093080103
:100830000CC0D80117968C911797882331F416961F
:100840008C911697821708F4282F209306017BC0FD
:100850008091080187FF77C080910F01E22E8217F7
:1008600008F4E82E8E1980930F01D1E08111D0E0B9
:10087000C0E062C02091110180910D0190910E01A4
:10088000273068F09C012F5F3F4F30930E0120937B
:100890000D01F80161918F0102D1CF5F4DC0F0E7EA
:1008A00080309F0708F04DC0CE5FF894E0910D01B5
:1008B000F0910E01D8018D919D918D0121E00C01E7
:1008C00020935700E8951124789480910D01909120
:1008D0000E01029690930E0180930D018F77907018
:1008E000009741F0DD2341F1CE1530F180911001E8
:1008F000882311F1F894E0910D01F0910E013297E7
:1009000083E080935700E895789407B600FCFDCF0C
:10091000F894E0910D01F0910E01329785E08093FB
:100920005700E895789407B600FCFDCFF89481E174
:1009300080935700E8957894CE1508F49BCFDD237B
:1009400011F010920601109224018091010184FFA0
:100950006CC0809106018F3F09F467C0182F893061
:1009600008F018E0811B809306018091140198E83B
:10097000892780931401112309F446C0809108014E
:1009800087FF26C080910F01811708F4182F811B63
:1009900080930F0100E0C5E1D1E017C08091110103
:1009A000E0900D01F0900E01873018F0C7016FD074
:1009B00002C0F7018491888321960894E11CF11C00
:1009C000F0920E01E0920D010F5F011739F71AC086
:1009D000E0912201F091230186FF09C0812FA5E15A
:1009E000B1E094919D9331968150D9F707C0812F42
:1009F000A5E1B1E091919D938150E1F7F09323013E
:100A0000E0932201193058F485E191E0612FBCDCBC
:100A10001C5F1C3041F08FEF8093060104C08FEF04
:100A2000809306011EE11093010184E199B194784D
:100A300031F48150D9F71092250110921F01809155
:100A40000001803130F04E9B0FC080910001805139
:100A500009C04E9909C080910001823028F0809130
:100A6000000182508093000180910001882309F0E9
:100A700013CEF894579A1BB81DBA1092690081E002
:100A800085BF15BEE0911201F09113010995F99906
:100A9000FECF92BD81BDF89A992780B50895262F83
:100AA000F999FECF1FBA92BD81BD20BD0FB6F89453
:100AB000FA9AF99A0FBE01960895F894FFCFFE5A5C
:100AC0001E950F00FF00FA01DC0102C005900D9297
:100AD00021503040D8F70895AF92BF92CF92DF9265
:100AE000EF92FF920F931F93CF93DF93CDB7DEB7B3
:100AF000C058D0400FB6F894DEBF0FBECDBF88E11E
:100B00000FB6F89480936000109260000FBEF894C6
:100B10001982609100017091010120E030E0FB0139
:100B2000E20FF31F45915491F901E050F04985918E
:100B300094914817590719F081E0898306C02E5F08
:100B40003F4F88E02837380751F78981882309F417
:100B5000A2C078E6C72E70E7D72EE12CF12CC70192
:100B6000B601AE014F5F5F4F20E830E0CBDA9C0169
:100B7000C701B6016856724F8F4F9F4FAE014F5F4E
:100B80005F4F00E510E0D3DA80E890E0A0E0B0E04D
:100B9000C80ED91EEA1EFB1E98E6C91692E7D906B2
:100BA00090E0E90690E0F906D1F6C12C60E7D62E78
:100BB000E12CF12CA12C50E9B52EAC0CBD1CCE01C2
:100BC00001966FEF70E040E850E077D0409100016F
:100BD000509101014A0D5B1D662757FD6095762FE8
:100BE000CE01019620E830E06EDFC701B601AE010C
:100BF0004F5F5F4F20E830E009E610E098DA80E8C8
:100C000090E0A0E0B0E0C80ED91EEA1EFB1E90E006
:100C1000C91693E7D90690E0E90690E0F90651F687
:100C200048E7C42E48E0D42ECA18DB08CE0101964E
:100C30006FEF70E040E850E040D0409100015091EB
:100C400001014A0D5B1D662757FD6095762F9601C1
:100C5000A1E8CA16D10410F020E830E0CE010196D8
:100C600032DFB5016050704980E090E0AE014F5F27
:100C70005F4F20E830E000E510E059DA80E890E0CE
:100C8000A80EB91EA0E8BFEFCA0EDB1EB8E7AB1670
:100C9000B8E0BB0658F2C058DF4F0FB6F894DEBF7D
:100CA0000FBECDBFDF91CF911F910F91FF90EF90BD
:100CB000DF90CF90BF90AF900895DC0101C06D939D
:0C0CC00041505040E0F70895F894FFCF39
:020CCC004E02D6
:00000001FF
